{
  "_format": "hh-sol-artifact-1",
  "contractName": "StreamRegistry",
  "sourceName": "contracts/StreamRegistry.sol",
  "abi": [
    {
      "anonymous": false,
      "inputs": [
        {
          "indexed": true,
          "internalType": "address",
          "name": "streamer",
          "type": "address"
        },
        {
          "indexed": false,
          "internalType": "string",
          "name": "name",
          "type": "string"
        },
        {
          "indexed": false,
          "internalType": "string",
          "name": "url",
          "type": "string"
        }
      ],
      "name": "StreamStarted",
      "type": "event"
    },
    {
      "anonymous": false,
      "inputs": [
        {
          "indexed": true,
          "internalType": "address",
          "name": "streamer",
          "type": "address"
        }
      ],
      "name": "StreamStopped",
      "type": "event"
    },
    {
      "anonymous": false,
      "inputs": [
        {
          "indexed": true,
          "internalType": "address",
          "name": "streamer",
          "type": "address"
        },
        {
          "indexed": false,
          "internalType": "string",
          "name": "name",
          "type": "string"
        },
        {
          "indexed": false,
          "internalType": "string",
          "name": "url",
          "type": "string"
        }
      ],
      "name": "StreamUpdated",
      "type": "event"
    },
    {
      "inputs": [],
      "name": "activeCount",
      "outputs": [
        {
          "internalType": "uint256",
          "name": "",
          "type": "uint256"
        }
      ],
      "stateMutability": "view",
      "type": "function"
    },
    {
      "inputs": [
        {
          "internalType": "uint256",
          "name": "",
          "type": "uint256"
        }
      ],
      "name": "activeList",
      "outputs": [
        {
          "internalType": "address",
          "name": "",
          "type": "address"
        }
      ],
      "stateMutability": "view",
      "type": "function"
    },
    {
      "inputs": [],
      "name": "getActiveStreams",
      "outputs": [
        {
          "components": [
            {
              "internalType": "address",
              "name": "streamer",
              "type": "address"
            },
            {
              "internalType": "string",
              "name": "name",
              "type": "string"
            },
            {
              "internalType": "string",
              "name": "url",
              "type": "string"
            },
            {
              "internalType": "bool",
              "name": "active",
              "type": "bool"
            }
          ],
          "internalType": "struct StreamRegistry.Stream[]",
          "name": "",
          "type": "tuple[]"
        }
      ],
      "stateMutability": "view",
      "type": "function"
    },
    {
      "inputs": [
        {
          "internalType": "address",
          "name": "streamer",
          "type": "address"
        }
      ],
      "name": "getStream",
      "outputs": [
        {
          "components": [
            {
              "internalType": "address",
              "name": "streamer",
              "type": "address"
            },
            {
              "internalType": "string",
              "name": "name",
              "type": "string"
            },
            {
              "internalType": "string",
              "name": "url",
              "type": "string"
            },
            {
              "internalType": "bool",
              "name": "active",
              "type": "bool"
            }
          ],
          "internalType": "struct StreamRegistry.Stream",
          "name": "",
          "type": "tuple"
        }
      ],
      "stateMutability": "view",
      "type": "function"
    },
    {
      "inputs": [
        {
          "internalType": "string",
          "name": "name",
          "type": "string"
        },
        {
          "internalType": "string",
          "name": "url",
          "type": "string"
        }
      ],
      "name": "startStream",
      "outputs": [],
      "stateMutability": "nonpayable",
      "type": "function"
    },
    {
      "inputs": [],
      "name": "stopStream",
      "outputs": [],
      "stateMutability": "nonpayable",
      "type": "function"
    },
    {
      "inputs": [
        {
          "internalType": "address",
          "name": "",
          "type": "address"
        }
      ],
      "name": "streams",
      "outputs": [
        {
          "internalType": "address",
          "name": "streamer",
          "type": "address"
        },
        {
          "internalType": "string",
          "name": "name",
          "type": "string"
        },
        {
          "internalType": "string",
          "name": "url",
          "type": "string"
        },
        {
          "internalType": "bool",
          "name": "active",
          "type": "bool"
        }
      ],
      "stateMutability": "view",
      "type": "function"
    },
    {
      "inputs": [
        {
          "internalType": "string",
          "name": "name",
          "type": "string"
        },
        {
          "internalType": "string",
          "name": "url",
          "type": "string"
        }
      ],
      "name": "updateStream",
      "outputs": [],
      "stateMutability": "nonpayable",
      "type": "function"
    }
  ],
  "bytecode": "0x608060405234801561001057600080fd5b50610ecb806100206000396000f3fe608060405234801561001057600080fd5b50600436106100885760003560e01c80639b15a44c1161005b5780639b15a44c146100ff5780639f1680301461012a578063c01d76d51461013d578063fbfbb3de1461014557600080fd5b806319edaf211461008d5780634331ed1f146100b657806383699275146100c757806389c2e718146100ea575b600080fd5b6100a061009b366004610a28565b61015a565b6040516100ad9190610af7565b60405180910390f35b6001546040519081526020016100ad565b6100da6100d5366004610a28565b6102fc565b6040516100ad9493929190610b0a565b6100fd6100f8366004610b9d565b610442565b005b61011261010d366004610c09565b610582565b6040516001600160a01b0390911681526020016100ad565b6100fd610138366004610b9d565b6105ac565b6100fd61065e565b61014d6107d9565b6040516100ad9190610c22565b610190604051806080016040528060006001600160a01b0316815260200160608152602001606081526020016000151581525090565b6001600160a01b038083166000908152602081815260409182902082516080810190935280549093168252600183018054929392918401916101d190610c86565b80601f01602080910402602001604051908101604052809291908181526020018280546101fd90610c86565b801561024a5780601f1061021f5761010080835404028352916020019161024a565b820191906000526020600020905b81548152906001019060200180831161022d57829003601f168201915b5050505050815260200160028201805461026390610c86565b80601f016020809104026020016040519081016040528092919081815260200182805461028f90610c86565b80156102dc5780601f106102b1576101008083540402835291602001916102dc565b820191906000526020600020905b8154815290600101906020018083116102bf57829003601f168201915b50505091835250506003919091015460ff16151560209091015292915050565b600060208190529081526040902080546001820180546001600160a01b03909216929161032890610c86565b80601f016020809104026020016040519081016040528092919081815260200182805461035490610c86565b80156103a15780601f10610376576101008083540402835291602001916103a1565b820191906000526020600020905b81548152906001019060200180831161038457829003601f168201915b5050505050908060020180546103b690610c86565b80601f01602080910402602001604051908101604052809291908181526020018280546103e290610c86565b801561042f5780601f106104045761010080835404028352916020019161042f565b820191906000526020600020905b81548152906001019060200180831161041257829003601f168201915b5050506003909301549192505060ff1684565b33600081815260208190526040902080546001600160a01b031916909117815560018101610471858783610d27565b5060028101610481838583610d27565b50600381015460ff166105335760038101805460ff19166001908117909155805480820182557fb10e2d527612073b26eecdfd717e6a320cf44b4afac2b0732d9fcbe2b7fa0cf60180546001600160a01b0319163390811790915590546000828152600260205260409081902091909155517fbb45a54d5aba564f025468161479d617bc586a45281d2b27ce130b2b5475e45d90610526908890889088908890610e10565b60405180910390a261057b565b336001600160a01b03167f51875f02a6666c4aeb89d7c883549e9d222f458cb7d459037c2d13a62b8b99cf868686866040516105729493929190610e10565b60405180910390a25b5050505050565b6001818154811061059257600080fd5b6000918252602090912001546001600160a01b0316905081565b336000908152602081905260409020600381015460ff166105ff5760405162461bcd60e51b81526020600482015260086024820152676e6f74206c69766560c01b60448201526064015b60405180910390fd5b6001810161060e858783610d27565b506002810161061e838583610d27565b50336001600160a01b03167f51875f02a6666c4aeb89d7c883549e9d222f458cb7d459037c2d13a62b8b99cf868686866040516105729493929190610e10565b336000908152602081905260409020600381015460ff166106ac5760405162461bcd60e51b81526020600482015260086024820152676e6f74206c69766560c01b60448201526064016105f6565b60038101805460ff191690553360009081526002602052604090205480156107aa5760015481811461076557600060016106e68184610e42565b815481106106f6576106f6610e69565b6000918252602090912001546001600160a01b0316905080600161071a8186610e42565b8154811061072a5761072a610e69565b600091825260208083209190910180546001600160a01b0319166001600160a01b039485161790559290911681526002909152604090208290555b600180548061077657610776610e7f565b60008281526020808220830160001990810180546001600160a01b0319169055909201909255338252600290526040812055505b60405133907fc8df9387463bad688e6bee33a5517e1226baa5a9d109b77f5602f6cd46986f9b90600090a25050565b60015460609060008167ffffffffffffffff8111156107fa576107fa610cc0565b60405190808252806020026020018201604052801561086157816020015b61084e604051806080016040528060006001600160a01b0316815260200160608152602001606081526020016000151581525090565b8152602001906001900390816108185790505b50905060005b82811015610a21576000806001838154811061088557610885610e69565b60009182526020808320909101546001600160a01b03908116845283820194909452604092830190912082516080810190935280549093168252600183018054929392918401916108d590610c86565b80601f016020809104026020016040519081016040528092919081815260200182805461090190610c86565b801561094e5780601f106109235761010080835404028352916020019161094e565b820191906000526020600020905b81548152906001019060200180831161093157829003601f168201915b5050505050815260200160028201805461096790610c86565b80601f016020809104026020016040519081016040528092919081815260200182805461099390610c86565b80156109e05780601f106109b5576101008083540402835291602001916109e0565b820191906000526020600020905b8154815290600101906020018083116109c357829003601f168201915b50505091835250506003919091015460ff1615156020909101528251839083908110610a0e57610a0e610e69565b6020908102919091010152600101610867565b5092915050565b600060208284031215610a3a57600080fd5b81356001600160a01b0381168114610a5157600080fd5b9392505050565b6000815180845260005b81811015610a7e57602081850181015186830182015201610a62565b506000602082860101526020601f19601f83011685010191505092915050565b60018060a01b0381511682526000602082015160806020850152610ac56080850182610a58565b905060408301518482036040860152610ade8282610a58565b9150506060830151151560608501528091505092915050565b602081526000610a516020830184610a9e565b6001600160a01b0385168152608060208201819052600090610b2e90830186610a58565b8281036040840152610b408186610a58565b915050821515606083015295945050505050565b60008083601f840112610b6657600080fd5b50813567ffffffffffffffff811115610b7e57600080fd5b602083019150836020828501011115610b9657600080fd5b9250929050565b60008060008060408587031215610bb357600080fd5b843567ffffffffffffffff80821115610bcb57600080fd5b610bd788838901610b54565b90965094506020870135915080821115610bf057600080fd5b50610bfd87828801610b54565b95989497509550505050565b600060208284031215610c1b57600080fd5b5035919050565b600060208083016020845280855180835260408601915060408160051b87010192506020870160005b82811015610c7957603f19888603018452610c67858351610a9e565b94509285019290850190600101610c4b565b5092979650505050505050565b600181811c90821680610c9a57607f821691505b602082108103610cba57634e487b7160e01b600052602260045260246000fd5b50919050565b634e487b7160e01b600052604160045260246000fd5b601f821115610d22576000816000526020600020601f850160051c81016020861015610cff5750805b601f850160051c820191505b81811015610d1e57828155600101610d0b565b5050505b505050565b67ffffffffffffffff831115610d3f57610d3f610cc0565b610d5383610d4d8354610c86565b83610cd6565b6000601f841160018114610d875760008515610d6f5750838201355b600019600387901b1c1916600186901b17835561057b565b600083815260209020601f19861690835b82811015610db85786850135825560209485019460019092019101610d98565b5086821015610dd55760001960f88860031b161c19848701351681555b505060018560011b0183555050505050565b81835281816020850137506000828201602090810191909152601f909101601f19169091010190565b604081526000610e24604083018688610de7565b8281036020840152610e37818587610de7565b979650505050505050565b81810381811115610e6357634e487b7160e01b600052601160045260246000fd5b92915050565b634e487b7160e01b600052603260045260246000fd5b634e487b7160e01b600052603160045260246000fdfea2646970667358221220ce5b9a349c1e90afb54a677978a08bf774d20f363b8753163fd8476a599ddaf964736f6c63430008180033",
  "linkReferences": {},
  "deployedLinkReferences": {}
}