{
  "_format": "hh-sol-artifact-1",
  "contractName": "TipRouter",
  "sourceName": "contracts/TipRouter.sol",
  "abi": [
    {
      "inputs": [
        {
          "internalType": "address",
          "name": "_yusd",
          "type": "address"
        }
      ],
      "stateMutability": "nonpayable",
      "type": "constructor"
    },
    {
      "anonymous": false,
      "inputs": [
        {
          "indexed": true,
          "internalType": "address",
          "name": "tipToken",
          "type": "address"
        },
        {
          "indexed": false,
          "internalType": "uint256",
          "name": "amount",
          "type": "uint256"
        }
      ],
      "name": "Funded",
      "type": "event"
    },
    {
      "anonymous": false,
      "inputs": [
        {
          "indexed": true,
          "internalType": "address",
          "name": "oldOwner",
          "type": "address"
        },
        {
          "indexed": true,
          "internalType": "address",
          "name": "newOwner",
          "type": "address"
        }
      ],
      "name": "OwnerTransferred",
      "type": "event"
    },
    {
      "anonymous": false,
      "inputs": [
        {
          "indexed": true,
          "internalType": "address",
          "name": "tipToken",
          "type": "address"
        },
        {
          "indexed": false,
          "internalType": "uint256",
          "name": "tipPerYUSD_1e18",
          "type": "uint256"
        }
      ],
      "name": "PriceUpdated",
      "type": "event"
    },
    {
      "anonymous": false,
      "inputs": [
        {
          "indexed": true,
          "internalType": "address",
          "name": "to",
          "type": "address"
        },
        {
          "indexed": false,
          "internalType": "uint256",
          "name": "amount",
          "type": "uint256"
        }
      ],
      "name": "SweptYUSD",
      "type": "event"
    },
    {
      "anonymous": false,
      "inputs": [
        {
          "indexed": true,
          "internalType": "address",
          "name": "from",
          "type": "address"
        },
        {
          "indexed": true,
          "internalType": "address",
          "name": "to",
          "type": "address"
        },
        {
          "indexed": true,
          "internalType": "address",
          "name": "tipToken",
          "type": "address"
        },
        {
          "indexed": false,
          "internalType": "uint256",
          "name": "yusdIn",
          "type": "uint256"
        },
        {
          "indexed": false,
          "internalType": "uint256",
          "name": "tipOut",
          "type": "uint256"
        },
        {
          "indexed": false,
          "internalType": "string",
          "name": "message",
          "type": "string"
        }
      ],
      "name": "Tipped",
      "type": "event"
    },
    {
      "anonymous": false,
      "inputs": [
        {
          "indexed": true,
          "internalType": "address",
          "name": "from",
          "type": "address"
        },
        {
          "indexed": true,
          "internalType": "address",
          "name": "to",
          "type": "address"
        },
        {
          "indexed": false,
          "internalType": "address[]",
          "name": "tipTokens",
          "type": "address[]"
        },
        {
          "indexed": false,
          "internalType": "uint256[]",
          "name": "yusdIn",
          "type": "uint256[]"
        },
        {
          "indexed": false,
          "internalType": "uint256[]",
          "name": "tipOut",
          "type": "uint256[]"
        },
        {
          "indexed": false,
          "internalType": "string",
          "name": "message",
          "type": "string"
        }
      ],
      "name": "TippedBatch",
      "type": "event"
    },
    {
      "inputs": [
        {
          "internalType": "address",
          "name": "tipToken",
          "type": "address"
        },
        {
          "internalType": "uint256",
          "name": "amount",
          "type": "uint256"
        }
      ],
      "name": "fundTipTreasury",
      "outputs": [],
      "stateMutability": "nonpayable",
      "type": "function"
    },
    {
      "inputs": [],
      "name": "owner",
      "outputs": [
        {
          "internalType": "address",
          "name": "",
          "type": "address"
        }
      ],
      "stateMutability": "view",
      "type": "function"
    },
    {
      "inputs": [
        {
          "internalType": "address",
          "name": "",
          "type": "address"
        }
      ],
      "name": "price",
      "outputs": [
        {
          "internalType": "uint256",
          "name": "",
          "type": "uint256"
        }
      ],
      "stateMutability": "view",
      "type": "function"
    },
    {
      "inputs": [
        {
          "internalType": "address",
          "name": "tipToken",
          "type": "address"
        },
        {
          "internalType": "uint256",
          "name": "tipPerYUSD_1e18",
          "type": "uint256"
        }
      ],
      "name": "setPrice",
      "outputs": [],
      "stateMutability": "nonpayable",
      "type": "function"
    },
    {
      "inputs": [
        {
          "internalType": "address",
          "name": "to",
          "type": "address"
        },
        {
          "internalType": "uint256",
          "name": "amount",
          "type": "uint256"
        }
      ],
      "name": "sweepYUSD",
      "outputs": [],
      "stateMutability": "nonpayable",
      "type": "function"
    },
    {
      "inputs": [
        {
          "internalType": "address",
          "name": "tipToken",
          "type": "address"
        },
        {
          "internalType": "address",
          "name": "streamer",
          "type": "address"
        },
        {
          "internalType": "uint256",
          "name": "yusdAmount",
          "type": "uint256"
        },
        {
          "internalType": "string",
          "name": "message",
          "type": "string"
        }
      ],
      "name": "tip",
      "outputs": [],
      "stateMutability": "nonpayable",
      "type": "function"
    },
    {
      "inputs": [
        {
          "internalType": "address[]",
          "name": "tipTokens",
          "type": "address[]"
        },
        {
          "internalType": "address",
          "name": "streamer",
          "type": "address"
        },
        {
          "internalType": "uint256[]",
          "name": "yusdAmounts",
          "type": "uint256[]"
        },
        {
          "internalType": "string",
          "name": "message",
          "type": "string"
        }
      ],
      "name": "tipBatch",
      "outputs": [],
      "stateMutability": "nonpayable",
      "type": "function"
    },
    {
      "inputs": [
        {
          "internalType": "address",
          "name": "newOwner",
          "type": "address"
        }
      ],
      "name": "transferOwnership",
      "outputs": [],
      "stateMutability": "nonpayable",
      "type": "function"
    },
    {
      "inputs": [],
      "name": "yusd",
      "outputs": [
        {
          "internalType": "address",
          "name": "",
          "type": "address"
        }
      ],
      "stateMutability": "view",
      "type": "function"
    }
  ],
  "bytecode": "0x60a060405234801561001057600080fd5b5060405161129e38038061129e83398101604081905261002f91610095565b6001600160a01b0381166100725760405162461bcd60e51b81526020600482015260066024820152650797573643d360d41b604482015260640160405180910390fd5b6001600160a01b0316608052600080546001600160a01b031916331790556100c5565b6000602082840312156100a757600080fd5b81516001600160a01b03811681146100be57600080fd5b9392505050565b6080516111aa6100f46000396000818160b101528181610371015281816108d80152610b8601526111aa6000f3fe608060405234801561001057600080fd5b50600436106100925760003560e01c8063a13a35f211610066578063a13a35f214610116578063a484118a14610129578063aea910781461013c578063ec20773e1461016a578063f2fde38b1461017d57600080fd5b8062e4768b146100975780630b907198146100ac5780634c0cc7c6146100f05780638da5cb5b14610103575b600080fd5b6100aa6100a5366004610d48565b610190565b005b6100d37f000000000000000000000000000000000000000000000000000000000000000081565b6040516001600160a01b0390911681526020015b60405180910390f35b6100aa6100fe366004610dbb565b610296565b6000546100d3906001600160a01b031681565b6100aa610124366004610d48565b61054f565b6100aa610137366004610e6f565b610699565b61015c61014a366004610f1d565b60016020526000908152604090205481565b6040519081526020016100e7565b6100aa610178366004610d48565b610af7565b6100aa61018b366004610f1d565b610c67565b6000546001600160a01b031633146101c35760405162461bcd60e51b81526004016101ba90610f3f565b60405180910390fd5b6001600160a01b0382166102035760405162461bcd60e51b81526020600482015260076024820152660746f6b656e3d360cc1b60448201526064016101ba565b6000811161023d5760405162461bcd60e51b8152602060048201526007602482015266070726963653d360cc1b60448201526064016101ba565b6001600160a01b03821660008181526001602052604090819020839055517f0d86730737b142fc160892fa8a0f2db687a92a0e294d1ad70624cf5acef03b849061028a9084815260200190565b60405180910390a25050565b6001600160a01b038516600090815260016020526040902054806102ec5760405162461bcd60e51b815260206004820152600d60248201526c1c1c9a58d9481b9bdd081cd95d609a1b60448201526064016101ba565b6001600160a01b03851661032f5760405162461bcd60e51b815260206004820152600a602482015269073747265616d65723d360b41b60448201526064016101ba565b6000841161034f5760405162461bcd60e51b81526004016101ba90610f62565b6040516323b872dd60e01b8152336004820152306024820152604481018590527f00000000000000000000000000000000000000000000000000000000000000006001600160a01b0316906323b872dd906064016020604051808303816000875af11580156103c2573d6000803e3d6000fd5b505050506040513d601f19601f820116820180604052508101906103e69190610f84565b61041e5760405162461bcd60e51b81526020600482015260096024820152681c1d5b1b081e5d5cd960ba1b60448201526064016101ba565b6000670de0b6b3a76400006104338387610fbc565b61043d9190610fd9565b60405163a9059cbb60e01b81526001600160a01b038881166004830152602482018390529192509088169063a9059cbb906044016020604051808303816000875af1158015610490573d6000803e3d6000fd5b505050506040513d601f19601f820116820180604052508101906104b49190610f84565b6104eb5760405162461bcd60e51b8152602060048201526008602482015267073656e64207469760c41b60448201526064016101ba565b866001600160a01b0316866001600160a01b0316336001600160a01b03167f5b65bf9eb5d82861cb07ae1490b90b8c04482b2e1314011855d64e648f386f5e8885898960405161053e9493929190611024565b60405180910390a450505050505050565b6001600160a01b03821661058f5760405162461bcd60e51b81526020600482015260076024820152660746f6b656e3d360cc1b60448201526064016101ba565b600081116105af5760405162461bcd60e51b81526004016101ba90610f62565b6040516323b872dd60e01b8152336004820152306024820152604481018290526001600160a01b038316906323b872dd906064016020604051808303816000875af1158015610602573d6000803e3d6000fd5b505050506040513d601f19601f820116820180604052508101906106269190610f84565b61065e5760405162461bcd60e51b8152602060048201526009602482015268199d5b990819985a5b60ba1b60448201526064016101ba565b816001600160a01b03167f5af8184bef8e4b45eb9f6ed7734d04da38ced226495548f46e0c8ff8d7d9a5248260405161028a91815260200190565b6001600160a01b0385166106dc5760405162461bcd60e51b815260206004820152600a602482015269073747265616d65723d360b41b60448201526064016101ba565b85831461071d5760405162461bcd60e51b815260206004820152600f60248201526e0d8cadccee8d040dad2e6dac2e8c6d608b1b60448201526064016101ba565b85806107535760405162461bcd60e51b8152602060048201526005602482015264656d70747960d81b60448201526064016101ba565b6000808267ffffffffffffffff81111561076f5761076f61104e565b604051908082528060200260200182016040528015610798578160200160208202803683370190505b50905060005b838110156108b55760008b8b838181106107ba576107ba611064565b90506020020160208101906107cf9190610f1d565b905060008989848181106107e5576107e5611064565b9050602002013590506000811161080e5760405162461bcd60e51b81526004016101ba90610f62565b6001600160a01b038216600090815260016020526040902054806108645760405162461bcd60e51b815260206004820152600d60248201526c1c1c9a58d9481b9bdd081cd95d609a1b60448201526064016101ba565b61086e828761107a565b9550670de0b6b3a76400006108838284610fbc565b61088d9190610fd9565b85858151811061089f5761089f611064565b602090810291909101015250505060010161079e565b506040516323b872dd60e01b8152336004820152306024820152604481018390527f00000000000000000000000000000000000000000000000000000000000000006001600160a01b0316906323b872dd906064016020604051808303816000875af1158015610929573d6000803e3d6000fd5b505050506040513d601f19601f8201168201806040525081019061094d9190610f84565b6109855760405162461bcd60e51b81526020600482015260096024820152681c1d5b1b081e5d5cd960ba1b60448201526064016101ba565b60005b83811015610a93578a8a828181106109a2576109a2611064565b90506020020160208101906109b79190610f1d565b6001600160a01b031663a9059cbb8a8484815181106109d8576109d8611064565b60200260200101516040518363ffffffff1660e01b8152600401610a119291906001600160a01b03929092168252602082015260400190565b6020604051808303816000875af1158015610a30573d6000803e3d6000fd5b505050506040513d601f19601f82011682018060405250810190610a549190610f84565b610a8b5760405162461bcd60e51b8152602060048201526008602482015267073656e64207469760c41b60448201526064016101ba565b600101610988565b50876001600160a01b0316336001600160a01b03167f4a69f2441b37727f25c3f6a6c7b010a6fd76b616ff199d3cf5142c82b5bc76be8c8c8b8b878c8c604051610ae397969594939291906110c9565b60405180910390a350505050505050505050565b6000546001600160a01b03163314610b215760405162461bcd60e51b81526004016101ba90610f3f565b6001600160a01b038216610b605760405162461bcd60e51b81526004016101ba906020808252600490820152630746f3d360e41b604082015260600190565b60405163a9059cbb60e01b81526001600160a01b038381166004830152602482018390527f0000000000000000000000000000000000000000000000000000000000000000169063a9059cbb906044016020604051808303816000875af1158015610bcf573d6000803e3d6000fd5b505050506040513d601f19601f82011682018060405250810190610bf39190610f84565b610c2c5760405162461bcd60e51b815260206004820152600a6024820152691cddd9595c0819985a5b60b21b60448201526064016101ba565b816001600160a01b03167f1bdb65b6c7c47369693d0b1193a992c5e5e40fad72bd35c19a0d5b626c2362b28260405161028a91815260200190565b6000546001600160a01b03163314610c915760405162461bcd60e51b81526004016101ba90610f3f565b6001600160a01b038116610cd15760405162461bcd60e51b815260206004820152600760248201526606f776e65723d360cc1b60448201526064016101ba565b600080546040516001600160a01b03808516939216917f8934ce4adea8d9ce0d714d2c22b86790e41b7731c84b926fbbdc1d40ff6533c991a3600080546001600160a01b0319166001600160a01b0392909216919091179055565b80356001600160a01b0381168114610d4357600080fd5b919050565b60008060408385031215610d5b57600080fd5b610d6483610d2c565b946020939093013593505050565b60008083601f840112610d8457600080fd5b50813567ffffffffffffffff811115610d9c57600080fd5b602083019150836020828501011115610db457600080fd5b9250929050565b600080600080600060808688031215610dd357600080fd5b610ddc86610d2c565b9450610dea60208701610d2c565b935060408601359250606086013567ffffffffffffffff811115610e0d57600080fd5b610e1988828901610d72565b969995985093965092949392505050565b60008083601f840112610e3c57600080fd5b50813567ffffffffffffffff811115610e5457600080fd5b6020830191508360208260051b8501011115610db457600080fd5b60008060008060008060006080888a031215610e8a57600080fd5b873567ffffffffffffffff80821115610ea257600080fd5b610eae8b838c01610e2a565b9099509750879150610ec260208b01610d2c565b965060408a0135915080821115610ed857600080fd5b610ee48b838c01610e2a565b909650945060608a0135915080821115610efd57600080fd5b50610f0a8a828b01610d72565b989b979a50959850939692959293505050565b600060208284031215610f2f57600080fd5b610f3882610d2c565b9392505050565b6020808252600990820152683737ba1037bbb732b960b91b604082015260600190565b6020808252600890820152670616d6f756e743d360c41b604082015260600190565b600060208284031215610f9657600080fd5b81518015158114610f3857600080fd5b634e487b7160e01b600052601160045260246000fd5b8082028115828204841417610fd357610fd3610fa6565b92915050565b600082610ff657634e487b7160e01b600052601260045260246000fd5b500490565b81835281816020850137506000828201602090810191909152601f909101601f19169091010190565b848152836020820152606060408201526000611044606083018486610ffb565b9695505050505050565b634e487b7160e01b600052604160045260246000fd5b634e487b7160e01b600052603260045260246000fd5b80820180821115610fd357610fd3610fa6565b60008151808452602080850194506020840160005b838110156110be578151875295820195908201906001016110a2565b509495945050505050565b6080808252810187905260008860a08301825b8a81101561110a576001600160a01b036110f584610d2c565b168252602092830192909101906001016110dc565b5083810360208501528781526001600160fb1b0388111561112a57600080fd5b8760051b91508189602083013701828103602090810160408501526111519082018761108d565b90508281036060840152611166818587610ffb565b9a995050505050505050505056fea2646970667358221220fa22844293f74ee495936673a2ed290e3213ce9dd29601dca460f630dc12788464736f6c63430008180033",
  "linkReferences": {},
  "deployedLinkReferences": {}
}